{
  "_format": "hh-sol-artifact-1",
  "contractName": "VerifiableURL",
  "sourceName": "contracts/VerifiableURL.sol",
  "abi": [
    {
      "inputs": [],
      "stateMutability": "nonpayable",
      "type": "constructor"
    },
    {
      "inputs": [
        {
          "internalType": "string",
          "name": "url",
          "type": "string"
        }
      ],
      "name": "addURL",
      "outputs": [],
      "stateMutability": "nonpayable",
      "type": "function"
    },
    {
      "inputs": [],
      "name": "owner",
      "outputs": [
        {
          "internalType": "address",
          "name": "",
          "type": "address"
        }
      ],
      "stateMutability": "view",
      "type": "function"
    },
    {
      "inputs": [
        {
          "internalType": "string",
          "name": "url",
          "type": "string"
        }
      ],
      "name": "verifyURL",
      "outputs": [
        {
          "internalType": "bool",
          "name": "",
          "type": "bool"
        }
      ],
      "stateMutability": "view",
      "type": "function"
    }
  ],
  "bytecode": "0x608060405234801561001057600080fd5b5033600160006101000a81548173ffffffffffffffffffffffffffffffffffffffff021916908373ffffffffffffffffffffffffffffffffffffffff160217905550610584806100616000396000f3fe608060405234801561001057600080fd5b50600436106100415760003560e01c806328c99a47146100465780638da5cb5b14610076578063d103449c14610094575b600080fd5b610060600480360381019061005b919061036e565b6100b0565b60405161006d91906103d2565b60405180910390f35b61007e610104565b60405161008b919061042e565b60405180910390f35b6100ae60048036038101906100a9919061036e565b61012a565b005b600080826040516020016100c491906104ba565b60405160208183030381529060405280519060200120905060008082815260200190815260200160002060009054906101000a900460ff16915050919050565b600160009054906101000a900473ffffffffffffffffffffffffffffffffffffffff1681565b600160009054906101000a900473ffffffffffffffffffffffffffffffffffffffff1673ffffffffffffffffffffffffffffffffffffffff163373ffffffffffffffffffffffffffffffffffffffff16146101ba576040517f08c379a00000000000000000000000000000000000000000000000000000000081526004016101b19061052e565b60405180910390fd5b6000816040516020016101cd91906104ba565b604051602081830303815290604052805190602001209050600160008083815260200190815260200160002060006101000a81548160ff0219169083151502179055505050565b6000604051905090565b600080fd5b600080fd5b600080fd5b600080fd5b6000601f19601f8301169050919050565b7f4e487b7100000000000000000000000000000000000000000000000000000000600052604160045260246000fd5b61027b82610232565b810181811067ffffffffffffffff8211171561029a57610299610243565b5b80604052505050565b60006102ad610214565b90506102b98282610272565b919050565b600067ffffffffffffffff8211156102d9576102d8610243565b5b6102e282610232565b9050602081019050919050565b82818337600083830152505050565b600061031161030c846102be565b6102a3565b90508281526020810184848401111561032d5761032c61022d565b5b6103388482856102ef565b509392505050565b600082601f83011261035557610354610228565b5b81356103658482602086016102fe565b91505092915050565b6000602082840312156103845761038361021e565b5b600082013567ffffffffffffffff8111156103a2576103a1610223565b5b6103ae84828501610340565b91505092915050565b60008115159050919050565b6103cc816103b7565b82525050565b60006020820190506103e760008301846103c3565b92915050565b600073ffffffffffffffffffffffffffffffffffffffff82169050919050565b6000610418826103ed565b9050919050565b6104288161040d565b82525050565b6000602082019050610443600083018461041f565b92915050565b600081519050919050565b600081905092915050565b60005b8381101561047d578082015181840152602081019050610462565b60008484015250505050565b600061049482610449565b61049e8185610454565b93506104ae81856020860161045f565b80840191505092915050565b60006104c68284610489565b915081905092915050565b600082825260208201905092915050565b7f4e6f74206f776e65720000000000000000000000000000000000000000000000600082015250565b60006105186009836104d1565b9150610523826104e2565b602082019050919050565b600060208201905081810360008301526105478161050b565b905091905056fea26469706673582212207ceb81dd4fd904665025d43174460f08813e70b7d7f28105796c2e412c98d0df64736f6c63430008130033",
  "linkReferences": {},
  "deployedLinkReferences": {}
}